:020000040800F2
:10000000580E0020D5020008B51C00086D1C000821
:10001000B11C0008251B0008232700080000000071
:100020000000000000000000000000007D2000082B
:100030008D1B000800000000451D000895210008E8
:10004000EF020008EF020008EF020008EF020008CC
:10005000EF020008EF020008EF020008EF020008BC
:10006000EF020008EF020008EF020008EF020008AC
:10007000EF020008EF020008EF020008EF0200089C
:10008000EF020008EF020008EF020008EF0200088C
:10009000EF020008EF020008EF020008EF0200087C
:1000A000EF020008EF020008EF020008EF0200086C
:1000B000EF020008EF020008EF020008EF0200085C
:1000C000EF020008EF020008EF020008EF0200084C
:1000D000EF02000865230008EF020008ED23000886
:1000E000EF020008EF020008EF020008EF0200082C
:1000F000EF020008EF020008EF020008EF0200081C
:10010000EF020008F51E0008EF020008EF020008E9
:10011000EF020008EF020008EF02000801220008C9
:10012000EF020008EF020008EF020008EF020008EB
:10013000EF020008EF020008EF020008EF020008DB
:10014000EF020008EF020008EF020008EF020008CB
:10015000EF020008EF020008EF020008EF020008BB
:10016000EF020008EF020008EF020008EF020008AB
:10017000EF020008EF020008EF020008EF0200089B
:10018000EF020008EF02000800F002F800F092F819
:100190000AA090E8000C82448344AAF10107DA45E2
:1001A00001D100F087F8AFF2090EBAE80F0013F0A2
:1001B000010F18BFFB1A43F001031847C0310000BC
:1001C000E0310000103A24BF78C878C1FAD852074D
:1001D00024BF30C830C144BF04680C6070470000C1
:1001E0000023002400250026103A28BF78C1FBD840
:1001F000520728BF30C148BF0B6070476E2900F01E
:10020000A183702900F06181662903F02C806529A3
:1002100003F02980672903F026806129AFF300806D
:1002200003681B0A28BF41F08001692900F0D280D1
:10023000642900F0CF80752900F0CC806F2900F090
:100240009884782900F02D81E92900F03384E4298D
:1002500000F03084F52900F02D84EF2900F095841A
:10026000F82900F02C810368DB0928BF41F08001E8
:10027000632900F0A283732900F0A783E32900F02B
:100280004687F32900F04B87002070471FB502F026
:10029000E5FF00F09FFF04000020002102F0C8FFEE
:1002A000401C60600020002102F0ACFFE0601FBD38
:1002B00010B510BD00F060FF1146FFF7E7FF02F038
:1002C000AFFD01F03DF803B4FFF7F2FF03BC02F00D
:1002D00049FA00000948804709480047FEE7FEE761
:1002E000FEE7FEE7FEE7FEE7FEE7FEE7FEE7FEE7E6
:1002F00004480549054A064B70470000992100084B
:100300008901000858080020580E0020580A0020D3
:10031000580A0020704700001CB50C46064B7B4471
:1003200069460090204600F026FB044600206946FE
:1003300000F034FB20461CBD7B0600000FB40449CE
:1003400010B503AA029800F045FB10BC5DF814FB41
:100350001C0000200FB41CB5084B06AA7B4469465C
:100360000090059800F007FB04460020694600F065
:1003700015FB20461CBC5DF814FB00003D06000088
:1003800070B50C460546012A05D02878800600D5B0
:10039000EA69002302E0012305E05B1C934202D2DC
:1003A000E05C0028F9D1A869E618C01AA861286A9B
:1003B00018442862284600F033FA04E0D5E9012108
:1003C00014F8010B9047B442F8D3284600F03EFAE7
:1003D00070BD00002DE9F041064600241068752923
:1003E000314616A510D000F042FA002802DA404249
:1003F00013A507E031688A0701D512A502E0490775
:1004000004D511A5012401E000F03AFA00210A22E6
:1004100006F1240709E0B0FBF2FCB0FBF2F302FBAB
:100420001C00303078541846491C0028F3D123466C
:100430002A463046BDE8F04100F02BBA000000002B
:100440002D0000002B00000020000000F0B40D463D
:100450000188090502D5214C7C4402E01F4C7C44F4
:100460000E34002100F1240608E002F00F07120903
:10047000E75D42EA03721B097754491C52EA0307FD
:10048000F3D102780023120704D5702D06D009B1EC
:10049000022311342246F0BC00F0FBB901231034D2
:1004A000F8E770B504460D462146106800F0E8F9FB
:1004B000024629462046BDE870400023C6E7D21D0B
:1004C00022F00703D3E90023C0E70368126843F072
:1004D000200303600823C3610023B7E70E2E00004A
:1004E0002DE9F05F894604464FF0000ADFF874B149
:1004F000FB44C0F820A02046E1688847002874D05B
:10050000252806D0D4E901219047206A401C2062AA
:10051000F1E700265F462046E16888472028054627
:1005200007DB312D05D2781910F8200C08B10643ED
:10053000F1E7B00701D526F00406C4F81CA0002797
:10054000C4F818A02A2D09D0284602F004F938B3BF
:1005500004EB8708303DC8F8185019E059F8041B1F
:10056000204604EB87029161E1688847012F054628
:1005700018D1E069002820DA26F020061DE0D8F81E
:10058000180000EB800005EB40003038C8F8180078
:100590002046E1688847054602F0DDF80028EED1E4
:1005A000012F0AD02E2D08D12046E16888477F1CF4
:1005B0000546022F46F02006C4DBA069002803DAB6
:1005C000404246F00106A061F00701D026F0100677
:1005D0006C2D0BD0682D09D04C2D39D06A2D35D01B
:1005E000742D35D07A2D33D016E038E0E1682F46EF
:1005F00020468847B842054609D16C2F26D04FF4D3
:100600008060E168064320468847054604E06C2F79
:100610001AD04FF4807006430DB3A5F1410019289C
:1006200002D8203546F400664A4629462046266010
:100630004E46FFF7E3FD80B101280BD0F61D26F0F2
:10064000070000F1080956E74020E4E78020D8E7DA
:100650000020D6E706F104094DE7284652E7206A54
:10066000BDE8F09F9E2D000030B505460B462A469A
:1006700013F8014B12F8010B08B1A042F8D01CB1DD
:10068000002802D06D1CF1E7284630BD10B5431C90
:1006900002E010F8011B71B18107FAD14FF001326D
:1006A00002C88C1A8C4314EAC211F9D0C01A0A0687
:1006B00003D0C01E10BDC01A10BD0A0401D0801E98
:1006C00010BD0902FCD0401E10BD032A40F230804C
:1006D00010F0030C00F0158011F8013BBCF1020F83
:1006E000624498BF11F801CB00F8013B38BF11F804
:1006F000013BA2F1040298BF00F801CB38BF00F81B
:10070000013B11F0030300F04B82083AC0F008806F
:1007100051F8043B083A51F804CBA0E80810F5E77B
:10072000121D5CBF51F8043B40F8043BAFF300805E
:10073000D20724BF11F8013B11F801CB48BF11F8D3
:10074000012B24BF00F8013B00F801CB48BF00F8A3
:10075000012B70474FF000020429C0F0128010F006
:10076000030C00F05182CCF1040CBCF1020F18BF55
:1007700000F8012BA8BF20F8022BA1EB0C0100F020
:1007800043BA5FEAC17C24BF00F8012B00F8012BBB
:1007900048BF00F8012B70474FF0013C50F8042B84
:1007A00051F8043B9A4221D1A2EB0C03934313EA84
:1007B000CC1317D150F8042B51F8043B9A4215D1B1
:1007C000A2EB0C03934313EACC130BD150F8042B88
:1007D00051F8043B9A4209D1A2EB0C03934313EA6C
:1007E000CC13DBD04FF00000704700BFD01A01BA25
:1007F000B1FA81F101F0180122FA01F0CB40C1F108
:100800002001DBB2C0B2C01A2CFA01F3D11A914315
:1008100011EAC311E6D170477047704770477047BF
:1008200070B5044685690068C10601D5302600E030
:100830002026C00707D070BDD4E90121304690477B
:10084000206A401C20626D1EF6D570BD70B504464E
:1008500085690078C00707D170BDD4E90121202047
:100860009047206A401C20626D1EF6D570BD096855
:100870004A0501D540B27047C905FCD500B27047A2
:1008800009684A0501D5C0B27047C905FCD580B2D8
:1008900070472DE9F0470D4699469246044600F10F
:1008A00024080168880604D5E06921F01001216060
:1008B00000E00120A84201DD471B00E00027A169FC
:1008C0007A1902EB0900081AA0612078C00602D448
:1008D0002046FFF7A5FF002608E0D4E901211AF819
:1008E00006009047206A401C761C20624E45F4DBCF
:1008F0002078C0060AD52046FFF792FF06E0D4E92B
:10090000012130209047206A401C2062381EA7F148
:100910000107F4DC07E0D4E9012118F8050090474D
:10092000206A401C2062281EA5F10105F3DC204648
:10093000FFF78CFF2078000602D50220BDE8F08783
:100940000120FBE711680268006A530501D50870B1
:100950000AE0D30501D5088006E0130603D5C217C7
:10096000C1E9000200E008600120704701694A1CEB
:1009700002610878704700B58FB0CDE901310021E0
:10098000059105497944CDE9031011466846FFF702
:10099000A7FD0FB000BD0000E5FFFFFF0A6802F8E9
:1009A000010B0A60704710B5436913B1AFF30080C3
:1009B00001E0FFF7E5FC012010BD127800F12401F1
:1009C0000A7000224A700122EDE711684FF0FF32F1
:1009D000E9E70000074B70B50D467B44FFF7CBFFFE
:1009E0000446284600F09FFB10B14FF0FF3070BD69
:1009F000204670BD272400002DE9FF5F15468A467A
:100A00000446DFF8AC80F8440027D8E900103E46E1
:100A1000CDE9001010E03AF816106A4602A800F07E
:100A200086FB411C07D02178890603D5E269391875
:100A300091420DD80744761C2078800602D5E069E3
:100A4000B84205DDAE42E6DB3AF816000028E2D1F6
:100A5000A069C01BA0612046FFF7E2FED8E90010A4
:100A6000CDE90010002017E03AF818106A4602A8F5
:100A700000F05DFBB0F1FF3F81460BD000250DF18A
:100A8000080B05E0D4E901211BF8050090476D1C17
:100A90004D45F7D308F10100B0428046E4DB206AFF
:100AA000384420622046FFF7D1FEBDE8FF9F0000DA
:100AB0009A2800002DE9F0418046D21D22F007025D
:100AC0000025D2E90002F52915A614D0011E72F105
:100AD000000106DA0023D0EB030063EB020211A64B
:100AE00008E0D8F800108B0701D50FA602E04907EF
:100AF00001D50EA601251146002408F1240704E0C3
:100B000000F0A7F830323A55641C50EA0102F7D1E0
:100B10002B46324621464046BDE8F041FFF7B9BEBC
:100B2000000000002D0000002B000000200000004D
:100B300030B4002100F1240408E002F00705D208D7
:100B4000303542EA4372DB086554491C52EA03051A
:100B5000F3D10468002310A2250707D5A40600D40A
:100B600021B1C46901230DA2641EC46130BCFFF72A
:100B700090BE10B5044621461068FFF781FE02467C
:100B80002046BDE810400023D2E7D21D22F0070125
:100B9000D1E90023CCE70000000000003000000095
:100BA00010B5203AC0F00B80B1E81850203AA0E808
:100BB0001850B1E81850A0E81850BFF4F5AF5FEA3C
:100BC000027C24BFB1E81850A0E8185044BF18C9EF
:100BD00018C0BDE810405FEA827C24BF51F8043B96
:100BE00040F8043B08BF7047D20728BF31F8023BEA
:100BF00048BF11F8012B28BF20F8023B48BF00F87E
:100C0000012B70474FF0000200B5134694469646FC
:100C1000203922BFA0E80C50A0E80C50B1F120010F
:100C2000BFF4F7AF090728BFA0E80C5048BF0CC0BD
:100C30005DF804EB890028BF40F8042B08BF70471B
:100C400048BF20F8022B11F0804F18BF00F8012B8D
:100C5000704730B5B0F10A024FEA900E71F100030F
:100C60004EEA817EB0EB0E0061EB91014FEA101E5F
:100C70004EEA017E10EB0E0041EB11114FEA102EEF
:100C80004EEA016E10EB0E0041EB11214FEA104EBF
:100C90004EEA014E10EB0E0041EB1141401841F1BC
:100CA00000014FEAD00040EA41704FEAD10110EB59
:100CB00080054FEA810444EA907444EB01046D1905
:100CC00044EB0404521BA3414FF0000348BF0A3217
:100CD00000D530BD401C41F1000130BD70472DE909
:100CE000FF4F0C461E464FF0FF378BB0D2E9000194
:100CF000DDF860800A908A46C1F30A5505B93D4681
:100D0000002108464FF00000BAF1000F00F4400047
:100D100005DA00EB80004FF4400101EA50004FEA91
:100D20009059B9F1010F00DDB9460A9850EA4A001E
:100D30000ED044F61050A5F2FF3545432F14B8F1FC
:100D4000000F1ED07542291E1EDDC9F100021CE0F5
:100D5000B8F1010F4FF0000001D0302103E0F24361
:100D600005E02154401CB042FBDB3046002200214C
:100D700021540B99C1F80880C1E900200FB0BDE8EB
:100D8000F08FBD1B6D1CDEE74A4600DA694206A8FB
:100D900000F064FA06AB93E8070003AB83E80700B2
:100DA00050460A9900F0D5FA8DE80700A0F50050EA
:100DB0001F3800900398002D0ADD42F21F014A46B9
:100DC0000844002303A90390684600F03EFD09E0B3
:100DD000A0F500504A461F38002303A90390684637
:100DE00000F048FD8DE807000004000C03D04FF030
:100DF000FF30410800E01046B8F1000F03D0002298
:100E0000009215461EE0751E05D4FFF722FF303212
:100E100062556D1EF9D5B3460122084302D0002267
:100E20007F1C04E02078302801D100227F1E002A98
:100E3000099784D01DE0112D07DAFFF70AFF303241
:100E400062556D1C50EA0102F5D1084302D00098AA
:100E5000C8B10EE00021681E05E0235C625C6354AB
:100E60002254401E491C8142F7DBAB46A81B401EA2
:100E70000990002004F80B000B98099AC0F808802C
:100E8000C0E9002B7AE711264FF0000857E72DE95B
:100E9000F04F88460446D21D22F0070191B0D1E9F7
:100EA0000001CDE90A0101F03EFC02460B98C00F9B
:100EB00001D02D2007E02068810701D52B2002E01A
:100EC000202101EAC000032A099001D0072A05DB8E
:100ED00003464146204600F081F90BE12078800668
:100EE00001D5E06900E00620B8F1650F814606D023
:100EF000B8F1660F18D0B8F1670F70D131E000205B
:100F0000B9F1110F009001DB112301E009F1010398
:100F10000AAA01A90CA8FFF7E2FEDDE90C70002681
:100F200009F10105834647E001204B4600904FF050
:100F300000470AAA01A90CA8FFF7D1FEDDE90DB010
:100F40000C995D46002610B909F101000D18B9EBA6
:100F5000050003D4C0F1FF3609F10105A5EB090036
:100F60002BE0B9F1010F01DA4FF001090020B9F1CE
:100F7000110F0090484601DD112300E003460AAA44
:100F800001A90CA8FFF7ABFEDDE90C704D46002669
:100F90008346207800070AD4AB4500DA5D4601A8F5
:100FA000012D04DD411911F8011C302907D04F45EE
:100FB00002DA17F1040F04DA012082460FE06D1EF9
:100FC000EEE7002F02DCED1B3E4403E0781CA84254
:100FD00000DD7D1CB81B00F1010A4FF000472078AE
:100FE000000703D4AA4501DB4FF0FF3A0021B7F117
:100FF000004F0DF143088DF8431024D002202B231D
:10100000002F01DA7F422D230A21021EA0F10100E8
:1010100000DC5FB197FBF1FC97FBF1F201FB1C7C5C
:1010200017460CF1300C08F801CDEEE7A8F10100ED
:1010300003702188090501D5452100E06521A0F153
:10104000010800F8011C09980FA9A1EB0807FF1D72
:1010500000B10120411901EBEA70A1693844081A76
:10106000401EA0612078C00602D42046FFF7D8FBBE
:10107000099828B1D4E901219047206A401C2062D8
:101080002078C00622D52046FFF7CAFB1EE0002EBE
:1010900004DBB34502DD01A8805D00E03020D4E927
:1010A00001219047206A401C2062761CAAF10100B1
:1010B0005FEA000A0AD100F08DF8C0680168405C60
:1010C000D4E901219047206A401C2062281EA5F126
:1010D0000105DCDC07E0D4E9012118F8010B904799
:1010E000206A401C2062381EA7F10107F3DC20466D
:1010F000FFF7ACFB032011B041E610B5436913B113
:10110000AFF3008001E0FFF777FC012010BD1288EB
:1011100000F1240182840022C2840122EDE71168DB
:101120004FF0FF32E9E7007B00F08000704770B5B8
:1011300016460C46054600F045F8036893F8010191
:10114000012806D0FF2C0FD8185D68B101202C7043
:1011500070BDD3F807013246214603F2071303445A
:101160002846BDE8704018474FF0FF3070BD0000C2
:1011700000487047F80700207546FFF7F9FFAE46B4
:1011800005006946534620F00700854618B020B593
:10119000FFF7AEF8BDE820404FF000064FF0000723
:1011A0004FF000084FF0000B21F00701AC46ACE80F
:1011B000C009ACE8C009ACE8C009ACE8C0098D467C
:1011C0007047000010B500F005F8001D10BD00BF0D
:1011D0006120000000487047180800202DE9F04108
:1011E0001F46044603260168072A01F4006004DB59
:1011F00008B116A505E016A503E008B115A500E0A5
:1012000015A521F010002060A069C01EA0610FB1DB
:10121000401EA0612046FFF703FB4FB1D4E9012136
:1012200038469047206A401C2062C01C206206E0BD
:10123000206AFAE7D4E9012115F8010B9047761EE0
:10124000F8D22046FFF702FBBDE8F0814E414E0088
:101250006E616E00494E4600696E66002DE9F047EA
:10126000814616468AB0354878440DC88DE80D0091
:1012700032487844801C03AC0DC884E80D0041F668
:101280009B300844372190FBF1F290FBF1F5A5F17A
:10129000800501FB12041B3C02D56442012000E0E2
:1012A0000020DFF898A080460027FA44AAF1BE0A81
:1012B0000EE0E0070AD03246684607EB47010123FB
:1012C0000AEB810100F0D6FA8DE8070064107F1C5C
:1012D000002CEED1194F7F44AE3F19E0E80715D03E
:1012E00007EB04100DF1180A90E80E008AE80E00D2
:1012F000C068F04201D1981908903246012306A92E
:1013000003A800F0B7FA03AB83E807006D10641C74
:10131000002DE3D14FF0010332466946B8F1000FCA
:1013200003A802D000F091FA01E000F0A3FAC9E9A5
:101330000001C9F808200AB0BDE8F087BC20000011
:1013400010B50446AFF300802046BDE81040FEF71C
:10135000BABF5FEA400C08BF91F0000F4FEA8C2340
:101360004FEAC12243EA51514FEA1C5018BF00F521
:10137000F0404FEA300018BF41F000415FEA6C5C7A
:1013800000F02980BCF1FF3F08BF40F0804070476B
:10139000130C06BF12044FF0100C4FF0000C130E8C
:1013A00004BF12020CF1080C130F04BF12010CF160
:1013B000040C930F04BF92000CF1020CD30F04BF76
:1013C00052000CF1010C11464FF00002A0F11F0079
:1013D000A0EB0C00704711F0004F08BF704731F0D0
:1013E00000413FF4D5AF0B0C06BF09044FF0100CC1
:1013F0004FF0000C0B0E04BF09020CF1080C0B0F90
:1014000004BF09010CF1040C8B0F04BF89000CF11F
:10141000020CCB0F04BF49000CF1010CCCF12003EE
:10142000A0EB0C0022FA03F302FA0CF241EA0301EA
:1014300000F10100704720F07F4C80EA030023F0A8
:101440007F47ACEB070303F57C5300F0004003F14A
:10145000FF032DE980494FEA154B09B44FEA1443C5
:1014600025EA0B4E24EA03480FF2042606EB132765
:1014700049083E785FEA320203FB0667C7F50007BA
:1014800007FB06F64FEA54374FEAD64606F1020646
:1014900007FB066CCCF1005C4FEA1C472CEA074CBA
:1014A00007FB06F40CFB06F504EB15464FEA96160F
:1014B00034BF00204FF000404FEAD13706FB07FC55
:1014C0004FEA1C4C0CFB0BF7D21B03FB0CF761EB38
:1014D00007010CFB0EF7B0EB074072EB17420CFB59
:1014E00008F734BFA2EB0742B2EB074261EB1741AA
:1014F0004FEA0C444FEA910706FB07FC4FEA1C4CED
:101500000CFB0BF7B0EBC74072EB573203FB0CF749
:1015100034BFA2EBC742B2EBC74261EB57310CFBC1
:101520000EF7B0EBC70072EB57720CFB08F734BF35
:10153000A2EBC702B2EBC70261EB5771039F4FEA00
:10154000816141EA921104EBCC044FEAD1374FEAB2
:10155000826206FB07FC42EA90124FEA80604FEA83
:101560001C4C0CFB0BF7D21B03FB0CF761EB0701C8
:101570000CFB0EF7B0EB074072EB17420CFB08F7C1
:1015800034BFA2EB0742B2EB074261EB17414FEACF
:101590008C554FEA910704EB9C2406FB07FC4FEAAD
:1015A0001C4C0CFB0BF7B0EBC74072EB573203FB44
:1015B0000CF734BFA2EBC742B2EBC74261EB573125
:1015C0000CFB0EF7B0EBC70072EB57720CFB08F781
:1015D00034BFA2EBC702B2EBC70261EB577115EB48
:1015E0004C254FEA816141EA92114FEA82624FEA4B
:1015F000D13742EA901206FB07FC44F100044FEA9F
:1016000080604FEA1C4C0CFB0BF7D21B03FB0CF762
:1016100061EB07010CFB0EF7B0EB074072EB1742D2
:101620000CFB08F734BFA2EB0742B2EB074261EBB9
:10163000174115EB1C154FEA813141EA92414FEAFF
:10164000823242EA90424FEA80304FEA0C7644F10F
:10165000000448EA03434EEA0B484FF0000EB2EB99
:10166000080C71EB030724BF624639464EEB0E0EA1
:101670004FF0000B0018524149414BEB0B0BB2EB02
:10168000080C71EB03077BF1000B24BF624639465F
:101690004EEB0E0E4FF0000B0018524149414BEB40
:1016A0000B0BB2EB080C71EB03077BF1000B24BFB3
:1016B000624639464EEB0E0E51EA020718BF46F05D
:1016C000010616EB0E7655F1000254F1000103D528
:1016D000BDE88901BDE80088BDE88901BDE8004892
:1016E000B619524141EB0101A3F10103704780801B
:1016F0007F7E7D7C7B7A797877767675747372716C
:1017000071706F6E6E6D6C6C6B6A6A696868676623
:1017100066656464636362616160605F5F5E5E5DB5
:101720005D5C5C5B5B5A5A59595858575756565529
:1017300055555454535352525251515050504F4F8B
:101740004F4E4E4D4D4D4C4C4C4B4B4B4A4A4A49DB
:10175000494948484847474747464646454545441E
:101760004444444343434342424242414141002BAB
:101770009C4630D477002BD01CB54FEA370703B412
:101780004FF010004FF01001BAF1000F06D0BCF17D
:10179000000FDCBF40F0080040F008014FF00000EF
:1017A0000FBCBDE810400BF1010BBBF1010F08BFEE
:1017B0005FEA170722BF12F1010211F101014FF098
:1017C000004143F1000300F0004043EA000070478D
:1017D000F9D35708D0E746EA064613F1400F4FEA1F
:1017E00016461FDD13F1200FDFBF16430A46002106
:1017F00020335B42BED0C3F1200746EA064602FA18
:1018000007F74FEA164646EA0706C3F1200722FA11
:1018100003F201FA07F721FA03F14FF0000342EA5D
:101820000702A7E746EA020646EA06464FEA1646D8
:1018300046EA0106BCBF46EA0646360C4FF00003F6
:101840004FF000024FF0000194E72DE9804C9A46DA
:10185000934670B491E8380007C831EA400C48BF9D
:1018600034EA430C03D5FFF7E6FDFFF780FFF0BC39
:10187000BDE8008C2DE9804C9A46934670B491E8FF
:10188000380007C810F0804F08BF13F0804F03D115
:1018900000F005F8FFF76BFFF0BCBDE8008C20F00E
:1018A0007F4780EA030023F07F4C07EB0C03A3F58E
:1018B0007C5300F00040A3F1FE0392F0000F00F013
:1018C000B38095F0000F00F077802DE901494FEAD1
:1018D00011404FEA144621EA004800FB06FC24EAC6
:1018E000064708FB06F607FB08F800FB07F718EBAE
:1018F00006484CEB164C4FEA124B18EB07484FEAE0
:1019000015464CEB174022EA0B4E0BFB06FC25EA72
:1019100006470EFB06F607FB0EFE0BFB07F71EEB5A
:10192000064E4CEB164C4FF000061EEB074E4CEBF0
:10193000174B18EB0B0840F1000018EB0E0B58EB9F
:10194000000840F100008F1A4FF000013CBFC9436E
:10195000661B14BFB5EB040C00213CBFC943F61B4A
:101960004FEA17444EEA8E0E27EA04454FEA1C4719
:1019700004FB07622CEA074C05FB07F70CFB05F696
:1019800004FB0CFC16EB074642EB174216EB0C4629
:1019900042EB1C421BEB060658EB0202414146EAB1
:1019A0009E0601D5BDE80189B619524141EB0101FE
:1019B000A3F10103BDE801894FEA14454FEA11473D
:1019C00024EA054621EA074C05FB07F406FB07F766
:1019D0000CFB06F105FB0CFC11EB074144EB174433
:1019E0004FEA124711EB0C4144EB1C4422EA074C2E
:1019F00005FB07F206FB07F70CFB06F605FB0CFCE4
:101A000016EB074642EB174216EB0C4642EB1C4521
:101A10006A1854F1000148BF7047B619524141EBB2
:101A20000101A3F10103704795F0000F37D04FEA91
:101A300011424FEA144721EA024624EA074C02FB0E
:101A400007F106FB07F70CFB06F402FB0CFC14EB9A
:101A5000074441EB17414FEA154714EB0C4441EBA7
:101A60001C4125EA074C02FB07F506FB07F70CFBB8
:101A700006F602FB0CFC16EB074645EB174516EB8A
:101A80000C4645EB1C42121951F1000148BF70474A
:101A9000B619524141EB0101A3F1010370474FEA2E
:101AA00014454FEA114724EA054621EA074C05FB95
:101AB00007F106FB07F70CFB06F24FF0000605FBEB
:101AC0000CFC12EB074241EB174112EB0C4251EBBD
:101AD0001C4148BF7047921841EB0101A3F101037B
:101AE000704700001CB50121202000F02DF94FF4B3
:101AF0008070009001208DF8040000208DF8060011
:101B000003208DF8050002208DF80700694604487F
:101B100000F03DF84FF48071014800F0A3F81CBDBF
:101B20000014024000BFFEE770B5044605E0164809
:101B3000056805F0450000B100E0F8E700BF0420AB
:101B400000F0CCF920B1042000F0C2F9032070BDF0
:101B5000012000F0C3F920B1012000F0B9F9012003
:101B6000F5E7094824380068A04201D01020EEE7CC
:101B700040F2FF5000F0ACF903482038006808211B
:101B80000840C0B2E3E70000342C01407047F0B5D4
:101B90000A4600210023002400BF3DE0012505FA8C
:101BA00001F3156805EA03049C4234D105684F002F
:101BB0000326BE40B543056015794E00B540066862
:101BC000354305601579012D02D01579022D16D106
:101BD00085684F000326BE40B543856055794E00A9
:101BE000B540866835438560456801268E40B5431B
:101BF0004560456896798E40B6B235434560C56804
:101C00004F000326BE40B543C560D5794E00B540B0
:101C1000C6683543C560491C1029BFD3F0BDF0B577
:101C2000002300244D07ED0E02FA05F3CE1000F15B
:101C3000200555F826504E07F70E0F26BE40B54337
:101C4000CF1000F1200646F82750CE1000F12005F5
:101C500055F8265045EA0304CE1000F1200545F85A
:101C60002640F0BD418370470183704700BFFEE707
:101C70001CB50121202000F067F84FF4C0600090EF
:101C800001208DF8040000208DF8060003208DF857
:101C9000050001208DF8070069460448FFF777FF2B
:101CA0004FF4C0610148FFF7DFFF1CBD0014024084
:101CB00000BFFEE77047000070B5002100230F222F
:101CC000C4781CB3174C246804F4E064C4F5E064E1
:101CD000C4F30721C1F10404E3B20A4144789C40F3
:101CE000E1B28478144021430C07210E0E4C057894
:101CF0006155047804F01F050124AC4005786D118E
:101D0000AD0005F1E025C5F8004109E0047804F0D4
:101D10001F050124AC40054D0678761145F8264094
:101D200070BD00000CED00E000E400E080E100E0A8
:101D300002490143024A1160704700000000FA05A1
:101D40000CED00E07047000029B1064A126802431A
:101D5000044B1A6004E0034A12688243014B1A6084
:101D6000704700003038024029B1064A1268024329
:101D7000044B1A6004E0034A12688243014B1A6064
:101D8000704700004038024029B1064A12680243F9
:101D9000044B1A6004E0034A12688243014B1A6044
:101DA000704700002038024029B1064A12680243F9
:101DB000044B1A6004E0034A12688243014B1A6024
:101DC000704700004438024029B1064A12680243B5
:101DD000044B1A6004E0034A12688243014B1A6004
:101DE0007047000024380240F0B500210022002492
:101DF000022500260223324F3F6807F00C0121B173
:101E0000042905D0082937D105E02E4F076036E0B8
:101E10002D4F076033E02A4F3F1F3F68C7F38056BE
:101E2000274F3F1F3F6807F03F036EB1264FB7FBB8
:101E3000F3F7DFF88CC0ACF1040CDCF800C0CCF395
:101E4000881C07FB0CF40CE01E4FB7FBF3F7DFF820
:101E500070C0ACF1040CDCF800C0CCF3881C07FBAC
:101E60000CF4174F3F1F3F68C7F301477F1C7D00ED
:101E7000B4FBF5F7076002E0124F076000BF00BF38
:101E80000F4F3F6807F0F0010909104F7A5C0768AF
:101E9000D74047600A4F3F6807F4E051890A0B4F6B
:101EA0007A5C4768D7408760054F3F6807F4604118
:101EB000490B064F7A5C4768D740C760F0BD000009
:101EC000083802400024F40000127A0022000020AA
:101ED0000149086070470000382C0140014600208D
:101EE000034A12680A400AB1012000E0002070474E
:101EF000342C014010B500F017F810BD0021094B3B
:101F000002681A601A1D11686FF30A01D0E90123F3
:101F10001A43C3681A4303691A431143014A121D45
:101F200011607047082C014010B54FF48070FFF726
:101F3000D5FF78B34C480078012814D100204B49D4
:101F400008600C204860402088600020C8604FF482
:101F5000806008610846FFF7D1FF0C20FFF7E4FD21
:101F60004349087002E00020414908704148006878
:101F700040F480703F490860081D00684CF23A3117
:101F800088433C49091D086001203B4908703848D6
:101F9000007810BDFFE70220FFF7A0FF78B1022014
:101FA000FFF796FF3348001D00684CF23A31884332
:101FB0003049091D086002202D490870E9E7082012
:101FC000FFF78CFF78B10820FFF782FF2948001D3A
:101FD00000684CF23A3188432649091D0860042004
:101FE00023490870D5E72020FFF778FF78B120203B
:101FF000FFF76EFF1F48001D00684CF23A3188431E
:102000001C49091D0860062019490870C1E7102005
:10201000FFF764FF78B11020FFF75AFF1548001D45
:1020200000684CF23A3188431249091D08600520C6
:102030000F490870ADE74FF40070FFF74FFF80B114
:102040004FF40070FFF744FF0A48001D00684CF28F
:102050003A3188430749091D086007200449087080
:1020600097E7002095E700003D00002038010020A0
:102070003E000020382C01403F0000207047000047
:102080000CB50020019000903448006840F4803086
:102090003249086000BF3148006800F40030009009
:1020A0000198401C0190009818B90198B0F5A04F14
:1020B000F1D12A48006800F4003010B101200090EE
:1020C00001E0002000900098012846D123484030CC
:1020D000006840F080502149403108602048006885
:1020E00040F440401E4908601C48083000681B4905
:1020F000083108600846006840F40040086008465F
:10210000006840F4A05008601648091F0860081FC6
:10211000006840F08070091F086000BF0F48006829
:1021200000F000700028F9D040F205700E490860F8
:102130000A480830006820F00300084908310860A8
:102140000846006840F00200086000BF03480830FD
:10215000006800F00C000828F8D10CBD00380240DF
:102160000070004008544007003C0240042808D199
:102170004FF0E021096941F004014FF0E0221161C4
:1021800007E04FF0E021096921F004014FF0E0225F
:10219000116170477047000010B51548006840F4A1
:1021A0007000134908601348006840F001001149AD
:1021B000086000200F49083108600E4800680E4989
:1021C00008400C4908600D48091D0860081F006898
:1021D00020F48020091F0860002006490C310860A7
:1021E000FFF74EFF4FF0006001498039086010BDD5
:1021F00088ED00E000380240FFFFF6FE10300024BA
:1022000010B50121094800F04EF868B1084800886F
:1022100040F40040064908800121044800F034F8E9
:102220000021024800F033F810BD00000014004007
:10223000440000207FB505460C4601212020FFF711
:1022400093FD0195ADF800400020ADF80800ADF811
:10225000020069460B4800F043F801221146094884
:1022600000F032F837208DF80C0000208DF80D00BA
:1022700001208DF80E008DF80F0003A8FFF71CFD5C
:102280007FBD000000140040CA430282704721B1A4
:10229000028842F00102028004E002884FF6FE73D9
:1022A0001A400280704730B5024600200023002407
:1022B000158A05EA0103958905EA010413B10CB1F9
:1022C000012000E0002030BD1AB183890B438381D7
:1022D00002E083898B43838170474162704700002D
:1022E00000220288184B98420ED0184B98420BD00F
:1022F000B0F1804F08D0164B984205D0154B98424C
:1023000002D0154B984204D14FF68F731A404B8878
:102310001A43124B984207D0114B984204D04FF603
:10232000FF431A400B891A4302804B68C3620B8833
:102330000385054B984202D0044B984201D18B7A19
:10234000038601238382704700000140000401409E
:102350000004004000080040000C00400010004055
:102360000014004010B540F225511D4800F017F947
:1023700010B31B4800F0CCF9C4B21A48008800F42E
:102380000040C8B91748008800F4804060B10A2CAA
:1023900003D000201349088020E01248008840F450
:1023A00000401049088019E00D2C06D10D48008826
:1023B00040F480400B49088010E00A480088C0F3D0
:1023C0000D0009490C5407480088401C0549088045
:1023D00008460088C72801DD0020088010BD0000E5
:1023E00000100140200000205400002010B540F2F1
:1023F0002551184800F0D3F818B3164800F088F9B2
:10240000154908701548008800F40040C8B9134801
:102410000088B0F5C87F15DA00211148FFF75DFF8D
:102420000E48008818B901210D48FFF730FF0A480F
:1024300001780A4802880088401C084B1880094827
:10244000815405E00548008840F4004003490880B5
:1024500010BD00000048004046000020440000205D
:10246000001400407005002001F40072B2F5007FF6
:1024700000D100BFCA430280704721B1828942F473
:102480000052828104E082894DF6FF731A408281F6
:102490007047000010B504463248844208D101213B
:1024A0001020FFF791FC00211020FFF78DFC57E072
:1024B0002D48844209D101214804FFF765FC002121
:1024C0004FF40030FFF760FC4AE02848844209D10D
:1024D00001218804FFF758FC00214FF48020FFF70A
:1024E00053FC3DE02248844209D10121C804FFF792
:1024F0004BFC00214FF40020FFF746FC30E01D4864
:10250000844209D101210805FFF73EFC00214FF468
:102510008010FFF739FC23E01748844208D10121DD
:102520002020FFF751FC00212020FFF74DFC17E091
:102530001248844209D101218807FFF725FC0021B8
:102540004FF08040FFF720FC0AE00D48844207D19D
:1025500001214005FFF718FC00216005FFF714FC7E
:1025600010BD000000100140004400400048004041
:10257000004C004000500040001401400078004032
:10258000007C004002460020B1F5007F00D100BF72
:1025900013880B400BB1012000E00020704770B59C
:1025A0000246002400230025002040F66A16B142AE
:1025B00000D100BFC1F3421501F01F03012606FA46
:1025C00003F3012D02D19689334006E0022D02D19A
:1025D000168A334001E0968A33400C12012606FA2F
:1025E00004F41688344013B10CB1012000E000203F
:1025F00070BDF0B50346002400260025002040F6FB
:102600006A17B94200D100BF1846C1F3421401F065
:102610001F06012707FA06F5012C01D10C3004E052
:10262000022C01D1103000E014301AB107682F439A
:10263000076002E00768AF430760F0BD2DE9FF4780
:1026400005460E460024A14600BFA046B08900B151
:1026500000BF2C8A24F44054F08804432C82AC89B7
:1026600041F20C608443B088318908437189084382
:102670000443AC81AC8A24F44074B0890443AC8236
:102680006846FFF7B1FB2048854202D01F488542CB
:1026900002D1DDF80C9001E0DDF80890A88900F483
:1026A000004040B109EBC90000EB09103168490056
:1026B000B0FBF1F707E009EBC90000EB0910316846
:1026C0008900B0FBF1F76420B7FBF0F004012009AA
:1026D000642101FB1078A88900F4004040B1322049
:1026E00000EBC800B0FBF1F000F00700044308E085
:1026F000322000EB08106421B0FBF1F000F00F0075
:1027000004432C81BDE8FF87001001400014014004
:1027100001468888C0F308007047C1F30802828030
:10272000704700BFFEE703B401984100009850EAEB
:10273000C12018BF04204A0D18BF40F0010040F22C
:10274000FF72B2EB515F08BF40F00200012808BFE2
:10275000052002B0704730380A2801D201207047A6
:1027600000207047014600BF7047000070B5044666
:102770000D4606480560022C01D0032C04D16422CA
:1027800003A104A000F0E6F970BD0000480000209D
:102790004F4B000041542B43495053544152543D38
:1027A00022544350222C223139322E3136382E34E5
:1027B0002E31222C383038360000000010B5044687
:1027C0006FF00400FFF7D2FCE11704EB5171C1F385
:1027D000C701074A11701046007800EB4001C1EBB9
:1027E000C0104FF6FF7101EAC0000249088010BD19
:1027F000160000201800002070B504464FF4077042
:1028000094FBF0F0C6B24FF4077094FBF0F100FBBC
:10281000114085B205E04FF4077000F009F8701E12
:10282000C6B2002EF7D115B1284600F001F870BDF0
:102830000146114A12884A434FF0E0235A610022B0
:102840009A611A46126942F001021A6100BF4FF004
:10285000E022106900F001021AB100F48032002A6F
:10286000F5D04FF0E022126922F001024FF0E02390
:102870001A6100229A6170471800002010B50446C2
:10288000012C15D121480368214822A1026828485B
:10289000FDF760FD322227A127A000F05BF900BF01
:1028A000322224A1224800F055F90028F8D12CE06A
:1028B000022C1AD132221FA11FA000F04BF913489D
:1028C000036813481FA102681948FDF743FD04E09F
:1028D000642218A122A000F03DF9642215A1144839
:1028E00000F038F90028F3D10FE0322211A120A026
:1028F00000F030F9054821A102680D48FDF72AFDD6
:1029000032220CA10A4800F025F910BD4C0000202D
:102910004800002041542B43495053544152543DE8
:1029200022554450222C222573222C2573000000AE
:10293000000700204F4B000041542B4349504D5598
:10294000583D300041542B43495053544152543D5B
:1029500022544350222C222573222C257300000080
:1029600041542B4349504D4F44453D310000000038
:1029700041542B4349504D55583D310041542B4350
:1029800049505345525645523D312C2573000000A5
:1029900070B5044600250948008800F4004058B18D
:1029A000002006490988C1F30E01054A505421460A
:1029B0001046FDF759FE0546284670BD440000202C
:1029C0007005002010B50446012C10D11948036889
:1029D00019481AA102682048FDF7BCFC32221FA149
:1029E0001D4800F0B7F82046FFF748FF21E0022C11
:1029F0001CD110480368104819A102681648FDF759
:102A0000A9FC07E01DA0FDF799FC4FF4FA70FFF751
:102A1000F3FE06E0322211A10F4800F09BF80028D7
:102A2000F0D100BF2046FFF729FF02E02046FFF764
:102A300025FF10BD4C0000204800002041542B43CE
:102A4000495053544152543D302C22554450222C6D
:102A5000222573222C257300000700204F4B000015
:102A600041542B43495053544152543D302C22542D
:102A70004350222C222573222C257300C1ACBDD3D8
:102A8000CAA7B0DC0000000010B500BF17480088DE
:102A900000F040000028F9D02B201449091D0880BF
:102AA0000F20FFF7A9FE00BF1048008800F040008B
:102AB0000028F9D02B200D49091D08800F20FFF7B1
:102AC0009BFE00BF0948008800F040000028F9D0B4
:102AD0002B200649091D08804FF4FA70FFF78CFE81
:102AE000142203A103A000F035F810BD00480040F7
:102AF0004F4B00004154000010B50E48008800F410
:102B00000040A8B14FF4C8720B490C48FDF7DDFD39
:102B10000A490BA0FDF712FC0020064908804FF47B
:102B2000C8710548FDF716FE4FF49670FFF764FE76
:102B3000024810BD4400002070050020300700202E
:102B4000776966695F6D73672069733A25730D0A4B
:102B5000000000002DE9F04106460D46144600270E
:102B6000002011490880314610A000F05DFAC5B17F
:102B7000BCB10FE00A20FFF73FFE0B48008800F4CD
:102B8000004038B12846FFF703FF00B106E00020FF
:102B900005490880601E80B2041EEBD100BF04B955
:102BA00001273846BDE8F0814400002025730D0A56
:102BB000000000002DE9F04106460D4614460027AE
:102BC000002015490880322214A115A0FFF7C2FF8A
:102BD0003220FFF711FE314616A000F025FAC5B1EC
:102BE000BCB10FE00A20FFF707FE0B48008800F495
:102BF000004038B12846FFF7CBFE00B106E00020C8
:102C000005490880601E80B2041EEBD100BF04B9E4
:102C100001273846BDE8F081440000204F4B0000FA
:102C200041542B43495053454E4445583D302C3375
:102C30003200000025730D0A5C30000010B5044618
:102C400013E0322210A111A0FFF784FF01280BD15D
:102C5000FFF71AFF32220CA10DA0FFF77BFF4FF404
:102C60004870FFF7C9FD00E000E0EAE700BF224638
:102C70000BA10F48FDF76EFB322203A10C48FFF7B2
:102C800069FF204610BD00004F4B0000415400007A
:102C900041542B4349504D4F44453D300000000006
:102CA00041542B43574D4F44453D256400000000DF
:102CB0000007002010B50446012C1BD12B480368E7
:102CC0002B482CA102683248FDF744FBC820FFF7CF
:102CD00093FD32222FA130A0FFF73CFFC820FFF761
:102CE0008BFD00BF32222BA12948FFF733FF0028BC
:102CF000F8D13AE0022C23D1322226A126A0FFF7F8
:102D000029FF1A4803681A4826A102682048FDF7DF
:102D100021FB07E02AA0FDF711FB4FF4FA70FFF743
:102D20006BFD06E032221BA11948FFF713FF0028B4
:102D3000F0D100BF322217A124A0FFF70BFF14E04F
:102D4000142214A125A0FFF705FF322224A125A0FB
:102D5000FFF700FF054826A102680D48FDF7FAFAC3
:102D600032220CA10A48FFF7F5FE10BD4C000020EE
:102D70004800002041542B43495053544152543D84
:102D800022554450222C222573222C25730000004A
:102D9000000700204F4B000041542B4349504D5534
:102DA000583D300041542B43495053544152543DF7
:102DB00022544350222C222573222C25730000001C
:102DC000C1ACBDD3CAA7B0DC0000000041542B4306
:102DD00049504D4F44453D31000000004154000032
:102DE000304B000041542B4349504D55583D310064
:102DF00041542B4349505345525645523D312C25A1
:102E00007300000000BF054A128802F04002002A49
:102E1000F9D0C2B2014B9A80704700000010014007
:102E20003220FFF7CBFC4FF4A060FEF781FF4FF498
:102E3000E13000F021F94FF4E13000F077F9FEF7CE
:102E400017FFFEF74FFE322245A146A0FFF782FE94
:102E500047480078FFF7F2FE00BF322245A146A0A6
:102E6000FFF778FE0028F8D14FF47A70FFF7C4FC22
:102E70004FF47A70FFF7C0FC4FF47A70FFF7BCFC98
:102E80003F4802683F4801683F48006800F0AAF8E0
:102E90003E48016836480078FFF768FC34480078FF
:102EA000012804D13A480078FFF704FF10E03048C9
:102EB0000078022804D136480078FFF7DFFC07E0ED
:102EC0002B480078032803D131480078FFF77AFDBA
:102ED0004FF47A70FFF790FC03E04FF47A70FFF73D
:102EE0008BFC32222BA12CA0FFF734FE0028F4D15A
:102EF000322220A12CA0FFF75DFE4FF47A70FFF77D
:102F00007BFC2CE0FFF7F8FD044621462DA0FDF7E1
:102F100015FA4FF47A70FFF76FFC30A12046FDF7E9
:102F2000A3FBD8B14FF400712D48FEF79BFE4FF480
:102F300080712B48FEF796FE4FF49670FFF75CFC0D
:102F40004FF400712648FEF78FFE4FF4807124483D
:102F5000FEF78AFE4FF49670FFF74EFC00BFD1E7F4
:102F60004F4B000041542B524553544F52450000E3
:102F70000C0000200000000041542B52535400006C
:102F800008000020040000200000002010000020A5
:102F90000D0000203300000041542B43495053548E
:102FA0004154555300000000746869732069732010
:102FB0004553503832363620737065616B696E67E1
:102FC0000000000072657475726E2076616C756524
:102FD000206973203A25730D0A0000006F6E00000F
:102FE0000014024070B504460E4615462B46224694
:102FF00006A10B48FDF7AEF900BF4FF4967209A188
:103000000748FFF7A7FD0028F7D170BD41542B43B7
:10301000574A41503D222573222C2225732200005D
:10302000000700204F4B00000FB438B505A80090F2
:103030000F48009A0499FDF76FF9002000900C48A2
:10304000FDF724FB85B200240DE000BF40210948B4
:10305000FFF798FA0028F9D00548015D0548FFF709
:103060005CFB601C84B2AC42EFDB38BC5DF814FB47
:10307000E00300200048004010B588B0044601215C
:103080000846FEF761FE01211020FEF78DFE0722A3
:1030900009212448FEF7C3FD07220A212148FEF733
:1030A000BEFD4FF4C060069002208DF81C008DF824
:1030B0001D0000208DF81E0001208DF81F0006A9BC
:1030C0001848FEF764FD02940020ADF80C00ADF83E
:1030D0000E00ADF81000ADF814000C20ADF8120091
:1030E00002A91148FFF7AAFA01210F48FFF7C5F915
:1030F00040210D48FFF7B8F9012240F225510A4856
:10310000FFF777FA25208DF8040003208DF80500DD
:103110008DF8060001208DF8070001A8FEF7CCFD10
:1031200008B010BD000002400010014010B588B08A
:10313000044601210220FEF707FE01218804FEF764
:1031400013FE2C48FFF7A6F907220B212A48FEF7A9
:1031500066FD07220A212848FEF761FD4FF4406012
:10316000059002208DF818008DF8190000208DF8C8
:103170001A0001208DF81B0005A91F48FEF707FD66
:1031800001940020ADF80800ADF80A00ADF80C007D
:10319000ADF810000C20ADF80E0001A91548FFF79E
:1031A0004DFA012240F225511248FFF722FA01217F
:1031B0001048FFF762F927208DF81C0002208DF8D7
:1031C0001D0003208DF81E0001208DF81F0007A8A8
:1031D000FEF772FD42F2CF0140F2E730FFF72AF826
:1031E00000200649088000210548FFF750F808B084
:1031F00010BD0000004800400004024044000020D0
:103200000014004010B500290AD00878002807D023
:1032100005487844FDF7C0FA002801D0002010BD11
:103220000248784410BD00008A01000082010000BD
:1032300010B500290AD00878002807D0054878443E
:10324000FDF7AAFA002801D0002010BD02487844FA
:1032500010BD00007A010000720100004FF04070C4
:10326000E1EE100A7047FDF712BE303132333435CB
:1032700036373839414243444546403058003031B2
:1032800032333435363738396162636465664030CD
:1032900078000400000800000000000000020001A7
:1032A00000001000000000000000000002400000CC
:1032B000000000A00000000005400000000000C861
:1032C000000000000C4000000000409C00000000D6
:1032D000194000000020BCBE000000003440000087
:1032E000BFC91B8E00000004B5400000504BCFD07A
:1032F0006607E2CF010000006C4100003E8251AA47
:10330000DFEEA73401000000D9420000DCB5A0E2E6
:103310003A301F97FFFFFFFFB4450000FD25A0C80E
:10332000E9A3C14FFFFFFFFFFF3F00000000008047
:1033300000000000FF3F00000000008000000000CF
:103340003139322E3136382E302E313130000000F6
:103350003132333435363738393000005750415F19
:10336000574150325F50534B000000006D6565744B
:10337000696E67003830383600000000C834000835
:103380000000002054000000C40100081C350008A3
:1033900054000020040E0000E00100081C000000A2
:1033A00043000000F8FFFFFF0C0000000E000000CB
:1033B0000F0000002E00000010010000430000007C
:1033C000F8FFFFFF00404040404040404040414146
:1033D00041414140404040404040404040404040EA
:1033E0004040404040050202020202020202020284
:1033F0000202020202202020202020202020200281
:103400000202020202029090909090901010101010
:1034100010101010101010101010101010101010AC
:103420000202020202028888888888880808080840
:10343000080808080808080808080808080808080C
:103440000202020240000000000000000000000034
:10345000000000000000000000000000000000006C
:10346000000000000000000000000000000000005C
:10347000000000000000000000000000000000004C
:10348000000000000000000000000000000000003C
:10349000000000000000000000000000000000002C
:1034A000000000000000000000000000000000001C
:1034B000000000000000000000000000000000000C
:1034C00000000000000000006C3300085C330008BE
:1034D00050330008010300004033000803000000DF
:1034E00000000000000000000000000000000102D9
:1034F000030401020304060708090000000000009D
:1035000000000000010000000000000000000000BA
:0C35100000000000743300080000000000
:040000050800018965
:00000001FF
